{
  "contractName": "Notary",
  "abi": [
    {
      "inputs": [
        {
          "internalType": "bytes32",
          "name": "",
          "type": "bytes32"
        }
      ],
      "name": "fileExists",
      "outputs": [
        {
          "internalType": "bool",
          "name": "",
          "type": "bool"
        }
      ],
      "stateMutability": "view",
      "type": "function",
      "constant": true
    },
    {
      "inputs": [
        {
          "internalType": "string",
          "name": "_filedata",
          "type": "string"
        },
        {
          "internalType": "string",
          "name": "_desc",
          "type": "string"
        }
      ],
      "name": "addFile",
      "outputs": [],
      "stateMutability": "nonpayable",
      "type": "function"
    },
    {
      "inputs": [
        {
          "internalType": "bytes32",
          "name": "_hash",
          "type": "bytes32"
        }
      ],
      "name": "checkFile",
      "outputs": [
        {
          "internalType": "address",
          "name": "_owner",
          "type": "address"
        },
        {
          "internalType": "string",
          "name": "_desc",
          "type": "string"
        },
        {
          "internalType": "uint256",
          "name": "_timestamp",
          "type": "uint256"
        }
      ],
      "stateMutability": "view",
      "type": "function",
      "constant": true
    },
    {
      "inputs": [
        {
          "internalType": "string",
          "name": "_data",
          "type": "string"
        }
      ],
      "name": "getFileHash",
      "outputs": [
        {
          "internalType": "bytes32",
          "name": "",
          "type": "bytes32"
        }
      ],
      "stateMutability": "pure",
      "type": "function",
      "constant": true
    }
  ],
  "bytecode": "0x608060405234801561001057600080fd5b5061076c806100206000396000f3fe608060405234801561001057600080fd5b506004361061004c5760003560e01c80630cec5f6214610051578063248bfc3b146100975780633ff4d491146101e9578063f880680b146102ca575b600080fd5b61007d6004803603602081101561006757600080fd5b8101908080359060200190929190505050610399565b604051808215151515815260200191505060405180910390f35b6101e7600480360360408110156100ad57600080fd5b81019080803590602001906401000000008111156100ca57600080fd5b8201836020820111156100dc57600080fd5b803590602001918460018302840111640100000000831117156100fe57600080fd5b91908080601f016020809104026020016040519081016040528093929190818152602001838380828437600081840152601f19601f8201169050808301925050505050505091929192908035906020019064010000000081111561016157600080fd5b82018360208201111561017357600080fd5b8035906020019184600183028401116401000000008311171561019557600080fd5b91908080601f016020809104026020016040519081016040528093929190818152602001838380828437600081840152601f19601f8201169050808301925050505050505091929192905050506103b9565b005b610215600480360360208110156101ff57600080fd5b8101908080359060200190929190505050610545565b604051808473ffffffffffffffffffffffffffffffffffffffff1673ffffffffffffffffffffffffffffffffffffffff16815260200180602001838152602001828103825284818151815260200191508051906020019080838360005b8381101561028d578082015181840152602081019050610272565b50505050905090810190601f1680156102ba5780820380516001836020036101000a031916815260200191505b5094505050505060405180910390f35b610383600480360360208110156102e057600080fd5b81019080803590602001906401000000008111156102fd57600080fd5b82018360208201111561030f57600080fd5b8035906020019184600183028401116401000000008311171561033157600080fd5b91908080601f016020809104026020016040519081016040528093929190818152602001838380828437600081840152601f19601f820116905080830192505050505050509192919290505050610680565b6040518082815260200191505060405180910390f35b60016020528060005260406000206000915054906101000a900460ff1681565b60006103c483610680565b9050600115156001600083815260200190815260200160002060009054906101000a900460ff1615151415610461576040517f08c379a00000000000000000000000000000000000000000000000000000000081526004018080602001828103825260138152602001807f66696c6520616c7265616479206578697374730000000000000000000000000081525060200191505060405180910390fd5b60405180606001604052808381526020014281526020013373ffffffffffffffffffffffffffffffffffffffff1681525060008083815260200190815260200160002060008201518160000190805190602001906104c0929190610691565b506020820151816001015560408201518160020160006101000a81548173ffffffffffffffffffffffffffffffffffffffff021916908373ffffffffffffffffffffffffffffffffffffffff160217905550905050600180600083815260200190815260200160002060006101000a81548160ff021916908315150217905550505050565b600060606000600115156001600086815260200190815260200160002060009054906101000a900460ff16151514156106795760008085815260200190815260200160002060020160009054906101000a900473ffffffffffffffffffffffffffffffffffffffff1692506000808581526020019081526020016000206000018054600181600116156101000203166002900480601f0160208091040260200160405190810160405280929190818152602001828054600181600116156101000203166002900480156106595780601f1061062e57610100808354040283529160200191610659565b820191906000526020600020905b81548152906001019060200180831161063c57829003601f168201915b505050505091506000808581526020019081526020016000206001015490505b9193909250565b600081805190602001209050919050565b828054600181600116156101000203166002900490600052602060002090601f016020900481019282601f106106d257805160ff1916838001178555610700565b82800160010185558215610700579182015b828111156106ff5782518255916020019190600101906106e4565b5b50905061070d9190610711565b5090565b61073391905b8082111561072f576000816000905550600101610717565b5090565b9056fea2646970667358221220832acfc8635d34e2808c8af5d8b0d41122de56d9216859ed341d62ebedfbf67464736f6c63430006060033",
  "immutableReferences": {},
  "source": "pragma solidity ^0.6.6;\r\n\r\n\r\nstruct FILE_ENTRY{\r\n   string description;\r\n   uint timestamp;\r\n   address owner;\r\n}\r\n\r\ncontract Notary{\r\n    mapping(bytes32 => FILE_ENTRY) file;\r\n    mapping(bytes32 => bool) public fileExists;\r\n\r\n    function addFile(string memory _filedata,string memory _desc) public\r\n     {\r\n     \r\n      bytes32 id=getFileHash(_filedata);\r\n      // require(fileExists[id] == false,'File already exists');\r\n      if(fileExists[id] == true){\r\n         revert('file already exists');\r\n      }else{\r\n         file[id]=FILE_ENTRY({description:_desc,timestamp:now,owner:msg.sender});\r\n         fileExists[id]=true;\r\n      }\r\n    \r\n     \r\n    \r\n    }\r\n\r\n    function checkFile(bytes32 _hash) public view\r\n    returns(address _owner,string memory  _desc,uint  _timestamp)\r\n    {\r\n       if(fileExists[_hash] == true){\r\n        _owner=file[_hash].owner;\r\n        _desc=file[_hash].description;\r\n        _timestamp=file[_hash].timestamp;\r\n\r\n       }\r\n    }\r\n\r\n    function getFileHash(string memory _data) public  pure\r\n    returns(bytes32)\r\n    {\r\n     return keccak256(bytes(_data));\r\n    }\r\n \r\n}",
  "sourcePath": "C:\\Users\\osasola\\Desktop\\js-projects\\blockchain\\eth-notary\\contracts\\Notary.sol",
  "compiler": {
    "name": "solc",
    "version": "0.6.6+commit.6c089d02.Emscripten.clang"
  },
  "schemaVersion": "3.2.0",
  "updatedAt": "2020-06-04T19:28:20.948Z",
  "networkType": "ethereum",
  "devdoc": {
    "methods": {}
  },
  "userdoc": {
    "methods": {}
  }
}