{
  "contractName": "Notary",
  "abi": [
    {
      "inputs": [
        {
          "internalType": "bytes32",
          "name": "",
          "type": "bytes32"
        }
      ],
      "name": "fileExists",
      "outputs": [
        {
          "internalType": "bool",
          "name": "",
          "type": "bool"
        }
      ],
      "stateMutability": "view",
      "type": "function",
      "constant": true
    },
    {
      "inputs": [
        {
          "internalType": "string",
          "name": "_filedata",
          "type": "string"
        },
        {
          "internalType": "string",
          "name": "_desc",
          "type": "string"
        }
      ],
      "name": "addFile",
      "outputs": [],
      "stateMutability": "nonpayable",
      "type": "function"
    },
    {
      "inputs": [
        {
          "internalType": "bytes32",
          "name": "_hash",
          "type": "bytes32"
        }
      ],
      "name": "checkFile",
      "outputs": [
        {
          "internalType": "address",
          "name": "_owner",
          "type": "address"
        },
        {
          "internalType": "string",
          "name": "_desc",
          "type": "string"
        },
        {
          "internalType": "uint256",
          "name": "_timestamp",
          "type": "uint256"
        },
        {
          "internalType": "uint256",
          "name": "_number",
          "type": "uint256"
        }
      ],
      "stateMutability": "view",
      "type": "function",
      "constant": true
    },
    {
      "inputs": [
        {
          "internalType": "string",
          "name": "_data",
          "type": "string"
        }
      ],
      "name": "getFileHash",
      "outputs": [
        {
          "internalType": "bytes32",
          "name": "",
          "type": "bytes32"
        }
      ],
      "stateMutability": "pure",
      "type": "function",
      "constant": true
    }
  ],
  "bytecode": "0x608060405234801561001057600080fd5b50610852806100206000396000f3fe608060405234801561001057600080fd5b506004361061004c5760003560e01c80630cec5f6214610051578063248bfc3b146100975780633ff4d491146101e9578063f880680b146102d1575b600080fd5b61007d6004803603602081101561006757600080fd5b81019080803590602001909291905050506103a0565b604051808215151515815260200191505060405180910390f35b6101e7600480360360408110156100ad57600080fd5b81019080803590602001906401000000008111156100ca57600080fd5b8201836020820111156100dc57600080fd5b803590602001918460018302840111640100000000831117156100fe57600080fd5b91908080601f016020809104026020016040519081016040528093929190818152602001838380828437600081840152601f19601f8201169050808301925050505050505091929192908035906020019064010000000081111561016157600080fd5b82018360208201111561017357600080fd5b8035906020019184600183028401116401000000008311171561019557600080fd5b91908080601f016020809104026020016040519081016040528093929190818152602001838380828437600081840152601f19601f8201169050808301925050505050505091929192905050506103c0565b005b610215600480360360208110156101ff57600080fd5b8101908080359060200190929190505050610568565b604051808573ffffffffffffffffffffffffffffffffffffffff1673ffffffffffffffffffffffffffffffffffffffff16815260200180602001848152602001838152602001828103825285818151815260200191508051906020019080838360005b83811015610293578082015181840152602081019050610278565b50505050905090810190601f1680156102c05780820380516001836020036101000a031916815260200191505b509550505050505060405180910390f35b61038a600480360360208110156102e757600080fd5b810190808035906020019064010000000081111561030457600080fd5b82018360208201111561031657600080fd5b8035906020019184600183028401116401000000008311171561033857600080fd5b91908080601f016020809104026020016040519081016040528093929190818152602001838380828437600081840152601f19601f820116905080830192505050505050509192919290505050610728565b6040518082815260200191505060405180910390f35b60016020528060005260406000206000915054906101000a900460ff1681565b60006103cb83610728565b9050600115156001600083815260200190815260200160002060009054906101000a900460ff1615151415610468576040517f08c379a00000000000000000000000000000000000000000000000000000000081526004018080602001828103825260138152602001807f46696c6520616c7265616479206578697374730000000000000000000000000081525060200191505060405180910390fd5b610470610739565b60405180608001604052808481526020014281526020013373ffffffffffffffffffffffffffffffffffffffff1681526020014381525090508060008084815260200190815260200160002060008201518160000190805190602001906104d8929190610777565b506020820151816001015560408201518160020160006101000a81548173ffffffffffffffffffffffffffffffffffffffff021916908373ffffffffffffffffffffffffffffffffffffffff16021790555060608201518160030155905050600180600084815260200190815260200160002060006101000a81548160ff02191690831515021790555050505050565b60006060600080600115156001600087815260200190815260200160002060009054906101000a900460ff16151514610609576040517f08c379a00000000000000000000000000000000000000000000000000000000081526004018080602001828103825260138152602001807f66696c6520646f6573206e6f742065786973740000000000000000000000000081525060200191505060405180910390fd5b60008086815260200190815260200160002060020160009054906101000a900473ffffffffffffffffffffffffffffffffffffffff1693506000808681526020019081526020016000206000018054600181600116156101000203166002900480601f0160208091040260200160405190810160405280929190818152602001828054600181600116156101000203166002900480156106ea5780601f106106bf576101008083540402835291602001916106ea565b820191906000526020600020905b8154815290600101906020018083116106cd57829003601f168201915b505050505092506000808681526020019081526020016000206001015491506000808681526020019081526020016000206003015490509193509193565b600081805190602001209050919050565b60405180608001604052806060815260200160008152602001600073ffffffffffffffffffffffffffffffffffffffff168152602001600081525090565b828054600181600116156101000203166002900490600052602060002090601f016020900481019282601f106107b857805160ff19168380011785556107e6565b828001600101855582156107e6579182015b828111156107e55782518255916020019190600101906107ca565b5b5090506107f391906107f7565b5090565b61081991905b808211156108155760008160009055506001016107fd565b5090565b9056fea264697066735822122004a214098fdd8b0ee91350dd5e6416b446f8ca8466524085ff4ec0e61514dbba64736f6c63430006060033",
  "immutableReferences": {},
  "source": "pragma solidity ^0.6.6;\r\n\r\n\r\nstruct FILE_ENTRY{\r\n   string description;\r\n   uint timestamp;\r\n   address owner;\r\n   uint number;\r\n}\r\n\r\ncontract Notary{\r\n    mapping(bytes32 => FILE_ENTRY) file;\r\n    mapping(bytes32 => bool) public fileExists;\r\n\r\n    function addFile(string memory _filedata,string memory _desc) public\r\n    \r\n     {\r\n     \r\n      bytes32 id=getFileHash(_filedata);\r\n      // require(fileExists[id] == false,'File already exists');\r\n      // if(fileExists[id] == true){\r\n      //    revert('file already exists');\r\n      // }else{\r\n      //    file[id]=FILE_ENTRY({description:_desc,timestamp:now,owner:msg.sender});\r\n      //    fileExists[id]=true;\r\n      // \r\n     if(fileExists[id] == true){revert('File already exists');}\r\n      FILE_ENTRY memory entry=FILE_ENTRY({\r\n        description:_desc,\r\n        timestamp:now,\r\n        owner:msg.sender,\r\n        number:block.number\r\n        });\r\n      file[id]=entry;\r\n      fileExists[id]=true;\r\n     \r\n    \r\n    }\r\n\r\n    function checkFile(bytes32 _hash) public view\r\n    returns(address _owner,string memory  _desc,uint  _timestamp,uint _number)\r\n    {\r\n      //  if(fileExists[_hash] == true){\r\n      //   _owner=file[_hash].owner;\r\n      //   _desc=file[_hash].description;\r\n      //   _timestamp=file[_hash].timestamp;\r\n\r\n      //  }\r\n      // require(fileExists[_hash],'file does not exist');\r\n       if(fileExists[_hash] != true){revert('file does not exist');}\r\n        _owner=file[_hash].owner;\r\n        _desc=file[_hash].description;\r\n        _timestamp=file[_hash].timestamp;\r\n        _number=file[_hash].number;\r\n    }\r\n\r\n    function getFileHash(string memory _data) public  pure\r\n    returns(bytes32)\r\n    {\r\n     return keccak256(bytes(_data));\r\n    }\r\n \r\n}",
  "sourcePath": "C:\\Users\\osasola\\Desktop\\js-projects\\blockchain\\eth-notary\\contracts\\Notary.sol",
  "compiler": {
    "name": "solc",
    "version": "0.6.6+commit.6c089d02.Emscripten.clang"
  },
  "schemaVersion": "3.2.2",
  "updatedAt": "2020-07-15T17:28:44.906Z",
  "networkType": "ethereum",
  "devdoc": {
    "methods": {}
  },
  "userdoc": {
    "methods": {}
  }
}